{
  "contractName": "Lottery",
  "abi": [
    {
      "inputs": [],
      "stateMutability": "nonpayable",
      "type": "constructor"
    },
    {
      "anonymous": false,
      "inputs": [
        {
          "indexed": false,
          "internalType": "uint256",
          "name": "index",
          "type": "uint256"
        },
        {
          "indexed": false,
          "internalType": "address",
          "name": "bettor",
          "type": "address"
        },
        {
          "indexed": false,
          "internalType": "uint256",
          "name": "amount",
          "type": "uint256"
        },
        {
          "indexed": false,
          "internalType": "bytes1",
          "name": "challenges",
          "type": "bytes1"
        },
        {
          "indexed": false,
          "internalType": "uint256",
          "name": "answerBlockNumber",
          "type": "uint256"
        }
      ],
      "name": "BET",
      "type": "event"
    },
    {
      "anonymous": false,
      "inputs": [
        {
          "indexed": false,
          "internalType": "uint256",
          "name": "index",
          "type": "uint256"
        },
        {
          "indexed": false,
          "internalType": "address",
          "name": "bettor",
          "type": "address"
        },
        {
          "indexed": false,
          "internalType": "uint256",
          "name": "amount",
          "type": "uint256"
        },
        {
          "indexed": false,
          "internalType": "bytes1",
          "name": "challenges",
          "type": "bytes1"
        },
        {
          "indexed": false,
          "internalType": "bytes1",
          "name": "anwser",
          "type": "bytes1"
        },
        {
          "indexed": false,
          "internalType": "uint256",
          "name": "answerBlockNumber",
          "type": "uint256"
        }
      ],
      "name": "DRAW",
      "type": "event"
    },
    {
      "anonymous": false,
      "inputs": [
        {
          "indexed": false,
          "internalType": "uint256",
          "name": "index",
          "type": "uint256"
        },
        {
          "indexed": false,
          "internalType": "address",
          "name": "bettor",
          "type": "address"
        },
        {
          "indexed": false,
          "internalType": "uint256",
          "name": "amount",
          "type": "uint256"
        },
        {
          "indexed": false,
          "internalType": "bytes1",
          "name": "challenges",
          "type": "bytes1"
        },
        {
          "indexed": false,
          "internalType": "bytes1",
          "name": "anwser",
          "type": "bytes1"
        },
        {
          "indexed": false,
          "internalType": "uint256",
          "name": "answerBlockNumber",
          "type": "uint256"
        }
      ],
      "name": "FAIL",
      "type": "event"
    },
    {
      "anonymous": false,
      "inputs": [
        {
          "indexed": false,
          "internalType": "uint256",
          "name": "index",
          "type": "uint256"
        },
        {
          "indexed": false,
          "internalType": "address",
          "name": "bettor",
          "type": "address"
        },
        {
          "indexed": false,
          "internalType": "uint256",
          "name": "amount",
          "type": "uint256"
        },
        {
          "indexed": false,
          "internalType": "bytes1",
          "name": "challenges",
          "type": "bytes1"
        },
        {
          "indexed": false,
          "internalType": "uint256",
          "name": "answerBlockNumber",
          "type": "uint256"
        }
      ],
      "name": "REFUND",
      "type": "event"
    },
    {
      "anonymous": false,
      "inputs": [
        {
          "indexed": false,
          "internalType": "uint256",
          "name": "index",
          "type": "uint256"
        },
        {
          "indexed": false,
          "internalType": "address",
          "name": "bettor",
          "type": "address"
        },
        {
          "indexed": false,
          "internalType": "uint256",
          "name": "amount",
          "type": "uint256"
        },
        {
          "indexed": false,
          "internalType": "bytes1",
          "name": "challenges",
          "type": "bytes1"
        },
        {
          "indexed": false,
          "internalType": "bytes1",
          "name": "anwser",
          "type": "bytes1"
        },
        {
          "indexed": false,
          "internalType": "uint256",
          "name": "answerBlockNumber",
          "type": "uint256"
        }
      ],
      "name": "WIN",
      "type": "event"
    },
    {
      "inputs": [],
      "name": "answerForTest",
      "outputs": [
        {
          "internalType": "bytes32",
          "name": "",
          "type": "bytes32"
        }
      ],
      "stateMutability": "view",
      "type": "function",
      "constant": true
    },
    {
      "inputs": [],
      "name": "owner",
      "outputs": [
        {
          "internalType": "address payable",
          "name": "",
          "type": "address"
        }
      ],
      "stateMutability": "view",
      "type": "function",
      "constant": true
    },
    {
      "inputs": [],
      "name": "getPot",
      "outputs": [
        {
          "internalType": "uint256",
          "name": "pot",
          "type": "uint256"
        }
      ],
      "stateMutability": "view",
      "type": "function",
      "constant": true
    },
    {
      "inputs": [
        {
          "internalType": "bytes1",
          "name": "challenges",
          "type": "bytes1"
        }
      ],
      "name": "betAndDistribute",
      "outputs": [
        {
          "internalType": "bool",
          "name": "result",
          "type": "bool"
        }
      ],
      "stateMutability": "payable",
      "type": "function",
      "payable": true
    },
    {
      "inputs": [
        {
          "internalType": "bytes1",
          "name": "challenges",
          "type": "bytes1"
        }
      ],
      "name": "bet",
      "outputs": [
        {
          "internalType": "bool",
          "name": "result",
          "type": "bool"
        }
      ],
      "stateMutability": "payable",
      "type": "function",
      "payable": true
    },
    {
      "inputs": [],
      "name": "distribute",
      "outputs": [],
      "stateMutability": "nonpayable",
      "type": "function"
    },
    {
      "inputs": [
        {
          "internalType": "bytes32",
          "name": "answer",
          "type": "bytes32"
        }
      ],
      "name": "setAnswerForTest",
      "outputs": [
        {
          "internalType": "bool",
          "name": "result",
          "type": "bool"
        }
      ],
      "stateMutability": "nonpayable",
      "type": "function"
    },
    {
      "inputs": [
        {
          "internalType": "bytes1",
          "name": "challenges",
          "type": "bytes1"
        },
        {
          "internalType": "bytes32",
          "name": "answer",
          "type": "bytes32"
        }
      ],
      "name": "isMatch",
      "outputs": [
        {
          "internalType": "enum Lottery.BettingResult",
          "name": "",
          "type": "uint8"
        }
      ],
      "stateMutability": "pure",
      "type": "function",
      "constant": true
    },
    {
      "inputs": [
        {
          "internalType": "uint256",
          "name": "index",
          "type": "uint256"
        }
      ],
      "name": "getBetInfo",
      "outputs": [
        {
          "internalType": "uint256",
          "name": "answerBlockNumber",
          "type": "uint256"
        },
        {
          "internalType": "address",
          "name": "bettor",
          "type": "address"
        },
        {
          "internalType": "bytes1",
          "name": "challenges",
          "type": "bytes1"
        }
      ],
      "stateMutability": "view",
      "type": "function",
      "constant": true
    }
  ],
  "bytecode": "0x60806040526000600560006101000a81548160ff02191690831515021790555034801561002b57600080fd5b5033600360006101000a81548173ffffffffffffffffffffffffffffffffffffffff021916908373ffffffffffffffffffffffffffffffffffffffff1602179055506118298061007c6000396000f3fe6080604052600436106100865760003560e01c80638da5cb5b116100595780638da5cb5b1461015d57806399a167d714610188578063e16ea857146101c5578063e4fc6b6d146101f5578063f4b46f5b1461020c57610086565b8063403c9fa81461008b5780637009fa36146100b657806379141f80146100f357806384f7e4f014610132575b600080fd5b34801561009757600080fd5b506100a061023c565b6040516100ad9190610fef565b60405180910390f35b3480156100c257600080fd5b506100dd60048036038101906100d89190611045565b610246565b6040516100ea919061108d565b60405180910390f35b3480156100ff57600080fd5b5061011a600480360381019061011591906110d4565b6102e8565b6040516101299392919061117d565b60405180910390f35b34801561013e57600080fd5b506101476103e6565b60405161015491906111c3565b60405180910390f35b34801561016957600080fd5b506101726103ec565b60405161017f91906111ff565b60405180910390f35b34801561019457600080fd5b506101af60048036038101906101aa9190611246565b610412565b6040516101bc91906112fd565b60405180910390f35b6101df60048036038101906101da9190611318565b6106fb565b6040516101ec919061108d565b60405180910390f35b34801561020157600080fd5b5061020a610718565b005b61022660048036038101906102219190611318565b610b75565b604051610233919061108d565b60405180910390f35b6000600454905090565b6000600360009054906101000a900473ffffffffffffffffffffffffffffffffffffffff1673ffffffffffffffffffffffffffffffffffffffff163373ffffffffffffffffffffffffffffffffffffffff16146102d8576040517f08c379a00000000000000000000000000000000000000000000000000000000081526004016102cf906113c8565b60405180910390fd5b8160068190555060019050919050565b60008060008060026000868152602001908152602001600020604051806060016040529081600082015481526020016001820160009054906101000a900473ffffffffffffffffffffffffffffffffffffffff1673ffffffffffffffffffffffffffffffffffffffff1673ffffffffffffffffffffffffffffffffffffffff1681526020016001820160149054906101000a900460f81b7effffffffffffffffffffffffffffffffffffffffffffffffffffffffffffff19167effffffffffffffffffffffffffffffffffffffffffffffffffffffffffffff1916815250509050806000015193508060200151925080604001519150509193909250565b60065481565b600360009054906101000a900473ffffffffffffffffffffffffffffffffffffffff1681565b6000808390506000849050600084600060208110610433576104326113e8565b5b1a60f81b905060008560006020811061044f5761044e6113e8565b5b1a60f81b90506004847effffffffffffffffffffffffffffffffffffffffffffffffffffffffffffff1916901c93506004847effffffffffffffffffffffffffffffffffffffffffffffffffffffffffffff1916901b93506004827effffffffffffffffffffffffffffffffffffffffffffffffffffffffffffff1916901c91506004827effffffffffffffffffffffffffffffffffffffffffffffffffffffffffffff1916901b91506004837effffffffffffffffffffffffffffffffffffffffffffffffffffffffffffff1916901b92506004837effffffffffffffffffffffffffffffffffffffffffffffffffffffffffffff1916901c92506004817effffffffffffffffffffffffffffffffffffffffffffffffffffffffffffff1916901b90506004817effffffffffffffffffffffffffffffffffffffffffffffffffffffffffffff1916901c9050837effffffffffffffffffffffffffffffffffffffffffffffffffffffffffffff1916827effffffffffffffffffffffffffffffffffffffffffffffffffffffffffffff19161480156106335750827effffffffffffffffffffffffffffffffffffffffffffffffffffffffffffff1916817effffffffffffffffffffffffffffffffffffffffffffffffffffffffffffff1916145b156106455760019450505050506106f5565b837effffffffffffffffffffffffffffffffffffffffffffffffffffffffffffff1916827effffffffffffffffffffffffffffffffffffffffffffffffffffffffffffff191614806106da5750827effffffffffffffffffffffffffffffffffffffffffffffffffffffffffffff1916817effffffffffffffffffffffffffffffffffffffffffffffffffffffffffffff1916145b156106ec5760029450505050506106f5565b60009450505050505b92915050565b600061070682610b75565b5061070f610718565b60019050919050565b600080610723610f7d565b60008060015494505b600054851015610b675760026000868152602001908152602001600020604051806060016040529081600082015481526020016001820160009054906101000a900473ffffffffffffffffffffffffffffffffffffffff1673ffffffffffffffffffffffffffffffffffffffff1673ffffffffffffffffffffffffffffffffffffffff1681526020016001820160149054906101000a900460f81b7effffffffffffffffffffffffffffffffffffffffffffffffffffffffffffff19167effffffffffffffffffffffffffffffffffffffffffffffffffffffffffffff191681525050925061081e8360000151610c6a565b91506000600281111561083457610833611286565b5b82600281111561084757610846611286565b5b1415610a8957600061085c8460000151610ccc565b905061086c846040015182610412565b91506001600281111561088257610881611286565b5b82600281111561089557610894611286565b5b141561092c576108bd84602001516611c37937e080006004546108b89190611446565b610cf4565b945060006004819055507f8219079e2d6c1192fb0ff7f78e6faaf5528ad6687e69749205d87bd4b156912b86856020015187876040015185600060208110610908576109076113e8565b5b1a60f81b8960000151604051610923969594939291906114fb565b60405180910390a15b600060028111156109405761093f611286565b5b82600281111561095357610952611286565b5b14156109df576611c37937e08000600460008282546109729190611446565b925050819055507f3b19d607433249d2ebc766ae82ca3848e9c064f1febb5147bc6e5b21d0adebc586856020015160008760400151856000602081106109bb576109ba6113e8565b5b1a60f81b89600001516040516109d696959493929190611597565b60405180910390a15b6002808111156109f2576109f1611286565b5b826002811115610a0557610a04611286565b5b1415610a8757610a2084602001516611c37937e08000610cf4565b94507f72ec2e949e4fad9380f9d5db3e2ed0e71cf22c51d8d66424508bdc761a3f4b0e86856020015187876040015185600060208110610a6357610a626113e8565b5b1a60f81b8960000151604051610a7e969594939291906114fb565b60405180910390a15b505b60016002811115610a9d57610a9c611286565b5b826002811115610ab057610aaf611286565b5b1415610abb57610b67565b600280811115610ace57610acd611286565b5b826002811115610ae157610ae0611286565b5b1415610b4a57610afc83602001516611c37937e08000610cf4565b93507f59c0185881271a0f53d43e6ab9310091408f9e0ff9ae2512613de800f26b8de48584602001518686604001518760000151604051610b419594939291906115f8565b60405180910390a15b610b5385610dc6565b508480610b5f9061164b565b95505061072c565b846001819055505050505050565b60006611c37937e080003414610bc0576040517f08c379a0000000000000000000000000000000000000000000000000000000008152600401610bb7906116e0565b60405180910390fd5b610bc982610e2a565b610c08576040517f08c379a0000000000000000000000000000000000000000000000000000000008152600401610bff9061174c565b60405180910390fd5b7f100791de9f40bf2d56ffa6dc5597d2fd0b2703ea70bc7548cd74c04f5d215ab76001600054610c38919061176c565b333485600343610c489190611446565b604051610c599594939291906117a0565b60405180910390a160019050919050565b60008143118015610c87575081610100610c849190611446565b43105b15610c955760009050610cc7565b814311610ca55760019050610cc7565b61010082610cb39190611446565b4310610cc25760029050610cc7565b600290505b919050565b6000600560009054906101000a900460ff16610cea57600654610ced565b81405b9050919050565b6000806000905060008184610d09919061176c565b90508473ffffffffffffffffffffffffffffffffffffffff166108fc829081150290604051600060405180830381858888f19350505050158015610d51573d6000803e3d6000fd5b50600360009054906101000a900473ffffffffffffffffffffffffffffffffffffffff1673ffffffffffffffffffffffffffffffffffffffff166108fc839081150290604051600060405180830381858888f19350505050158015610dba573d6000803e3d6000fd5b50809250505092915050565b6000600260008381526020019081526020016000206000808201600090556001820160006101000a81549073ffffffffffffffffffffffffffffffffffffffff02191690556001820160146101000a81549060ff0219169055505060019050919050565b6000610e34610f7d565b33816020019073ffffffffffffffffffffffffffffffffffffffff16908173ffffffffffffffffffffffffffffffffffffffff1681525050600343610e799190611446565b8160000181815250508281604001907effffffffffffffffffffffffffffffffffffffffffffffffffffffffffffff191690817effffffffffffffffffffffffffffffffffffffffffffffffffffffffffffff1916815250508060026000805481526020019081526020016000206000820151816000015560208201518160010160006101000a81548173ffffffffffffffffffffffffffffffffffffffff021916908373ffffffffffffffffffffffffffffffffffffffff16021790555060408201518160010160146101000a81548160ff021916908360f81c0217905550905050600080815480929190610f6e9061164b565b91905055506001915050919050565b604051806060016040528060008152602001600073ffffffffffffffffffffffffffffffffffffffff16815260200160007effffffffffffffffffffffffffffffffffffffffffffffffffffffffffffff191681525090565b6000819050919050565b610fe981610fd6565b82525050565b60006020820190506110046000830184610fe0565b92915050565b600080fd5b6000819050919050565b6110228161100f565b811461102d57600080fd5b50565b60008135905061103f81611019565b92915050565b60006020828403121561105b5761105a61100a565b5b600061106984828501611030565b91505092915050565b60008115159050919050565b61108781611072565b82525050565b60006020820190506110a2600083018461107e565b92915050565b6110b181610fd6565b81146110bc57600080fd5b50565b6000813590506110ce816110a8565b92915050565b6000602082840312156110ea576110e961100a565b5b60006110f8848285016110bf565b91505092915050565b600073ffffffffffffffffffffffffffffffffffffffff82169050919050565b600061112c82611101565b9050919050565b61113c81611121565b82525050565b60007fff0000000000000000000000000000000000000000000000000000000000000082169050919050565b61117781611142565b82525050565b60006060820190506111926000830186610fe0565b61119f6020830185611133565b6111ac604083018461116e565b949350505050565b6111bd8161100f565b82525050565b60006020820190506111d860008301846111b4565b92915050565b60006111e982611101565b9050919050565b6111f9816111de565b82525050565b600060208201905061121460008301846111f0565b92915050565b61122381611142565b811461122e57600080fd5b50565b6000813590506112408161121a565b92915050565b6000806040838503121561125d5761125c61100a565b5b600061126b85828601611231565b925050602061127c85828601611030565b9150509250929050565b7f4e487b7100000000000000000000000000000000000000000000000000000000600052602160045260246000fd5b600381106112c6576112c5611286565b5b50565b60008190506112d7826112b5565b919050565b60006112e7826112c9565b9050919050565b6112f7816112dc565b82525050565b600060208201905061131260008301846112ee565b92915050565b60006020828403121561132e5761132d61100a565b5b600061133c84828501611231565b91505092915050565b600082825260208201905092915050565b7f4f6e6c79206f776e65722063616e207365742074686520616e7377657220206660008201527f6f722074657374206d6f64650000000000000000000000000000000000000000602082015250565b60006113b2602c83611345565b91506113bd82611356565b604082019050919050565b600060208201905081810360008301526113e1816113a5565b9050919050565b7f4e487b7100000000000000000000000000000000000000000000000000000000600052603260045260246000fd5b7f4e487b7100000000000000000000000000000000000000000000000000000000600052601160045260246000fd5b600061145182610fd6565b915061145c83610fd6565b9250827fffffffffffffffffffffffffffffffffffffffffffffffffffffffffffffffff0382111561149157611490611417565b5b828201905092915050565b6000819050919050565b60006114c16114bc6114b784611101565b61149c565b611101565b9050919050565b60006114d3826114a6565b9050919050565b60006114e5826114c8565b9050919050565b6114f5816114da565b82525050565b600060c0820190506115106000830189610fe0565b61151d60208301886114ec565b61152a6040830187610fe0565b611537606083018661116e565b611544608083018561116e565b61155160a0830184610fe0565b979650505050505050565b6000819050919050565b600061158161157c6115778461155c565b61149c565b610fd6565b9050919050565b61159181611566565b82525050565b600060c0820190506115ac6000830189610fe0565b6115b960208301886114ec565b6115c66040830187611588565b6115d3606083018661116e565b6115e0608083018561116e565b6115ed60a0830184610fe0565b979650505050505050565b600060a08201905061160d6000830188610fe0565b61161a60208301876114ec565b6116276040830186610fe0565b611634606083018561116e565b6116416080830184610fe0565b9695505050505050565b600061165682610fd6565b91507fffffffffffffffffffffffffffffffffffffffffffffffffffffffffffffffff82141561168957611688611417565b5b600182019050919050565b7f4e6f7420656e6f75676820455448000000000000000000000000000000000000600082015250565b60006116ca600e83611345565b91506116d582611694565b602082019050919050565b600060208201905081810360008301526116f9816116bd565b9050919050565b7f4661696c20746f206164642061206e65772042657420496e666f000000000000600082015250565b6000611736601a83611345565b915061174182611700565b602082019050919050565b6000602082019050818103600083015261176581611729565b9050919050565b600061177782610fd6565b915061178283610fd6565b92508282101561179557611794611417565b5b828203905092915050565b600060a0820190506117b56000830188610fe0565b6117c26020830187611133565b6117cf6040830186610fe0565b6117dc606083018561116e565b6117e96080830184610fe0565b969550505050505056fea2646970667358221220e5b879ac358387d6b32d9f5f11574701dba7c179055954a6775251029019f3e664736f6c634300080b0033",
  "immutableReferences": {},
  "source": "// SPDX-License-Identifier: MIT\r\npragma solidity >=0.4.22 <0.9.0;\r\n\r\ncontract Lottery {\r\n    struct BetInfo {\r\n        uint256 answerBlockNumber;\r\n        address payable bettor; //     payable\r\n        bytes1 challenges; //0xab\r\n    }\r\n\r\n    uint256 private _tail;\r\n    uint256 private _head;\r\n    //      QUEUE \r\n    mapping(uint256 => BetInfo) private _bets; //    \r\n    //   0\r\n    address payable public owner;\r\n\r\n    uint256 internal constant BLOCK_LIMIT = 256;\r\n    uint256 internal constant BET_BLOCK_INTERVAL = 3; // +3\r\n    uint256 internal constant BET_AMOUNT = 5 * 10**15; //   \r\n\r\n    uint256 private _pot; //   \r\n    bool private mode = false; // false : use answer for test, true : real block hash\r\n    bytes32 public answerForTest;\r\n\r\n    enum BlockStatus {\r\n        Checkable,\r\n        NotRevealed,\r\n        BlockLimitPassed\r\n    }\r\n    enum BettingResult {\r\n        fail,\r\n        win,\r\n        draw\r\n    }\r\n    event BET(\r\n        uint256 index,\r\n        address bettor,\r\n        uint256 amount,\r\n        bytes1 challenges,\r\n        uint256 answerBlockNumber\r\n    );\r\n    event WIN(\r\n        uint256 index,\r\n        address bettor,\r\n        uint256 amount,\r\n        bytes1 challenges,\r\n        bytes1 anwser,\r\n        uint256 answerBlockNumber\r\n    );\r\n    event FAIL(\r\n        uint256 index,\r\n        address bettor,\r\n        uint256 amount,\r\n        bytes1 challenges,\r\n        bytes1 anwser,\r\n        uint256 answerBlockNumber\r\n    );\r\n    event DRAW(\r\n        uint256 index,\r\n        address bettor,\r\n        uint256 amount,\r\n        bytes1 challenges,\r\n        bytes1 anwser,\r\n        uint256 answerBlockNumber\r\n    );\r\n    event REFUND(\r\n        uint256 index,\r\n        address bettor,\r\n        uint256 amount,\r\n        bytes1 challenges,\r\n        uint256 answerBlockNumber\r\n    );\r\n\r\n    //   /  /  /   /    \r\n\r\n    constructor() public {\r\n        owner = payable(msg.sender);\r\n    }\r\n\r\n    //   \r\n    function getPot() public view returns (uint256 pot) {\r\n        return _pot;\r\n    }\r\n\r\n    /*\r\n     * @dev      0.005ETH  ,  1byte  \r\n     *      distribute  \r\n     * @param challenges   \r\n     * @return     bool \r\n     */\r\n\r\n    //       \r\n    function betAndDistribute(bytes1 challenges)\r\n        public\r\n        payable\r\n        returns (bool result)\r\n    {\r\n        bet(challenges);\r\n        distribute();\r\n        return true;\r\n    }\r\n\r\n    /*\r\n     * @dev   ->  0.005ETH  .  1byte  \r\n     *      distribute  \r\n     * @param challenges   \r\n     * @return     bool \r\n     */\r\n    function bet(bytes1 challenges) public payable returns (bool result) {\r\n        // check the proper ether is sent\r\n        require(msg.value == BET_AMOUNT, \"Not enough ETH\");\r\n        // push bet to the queue\r\n        require(pushBet(challenges), \"Fail to add a new Bet Info\");\r\n        // emit event\r\n        emit BET(\r\n            _tail - 1,\r\n            msg.sender,\r\n            msg.value,\r\n            challenges,\r\n            block.number + BET_BLOCK_INTERVAL\r\n        );\r\n        // _tail    index -> -1 \r\n\r\n        return true;\r\n    }\r\n\r\n    // save the bet to the queue\r\n\r\n    /*\r\n     * @dev     \r\n     *   :  ,   :  ,    or    :   \r\n     */\r\n    // Distribute\r\n    function distribute() public {\r\n        // head 3 4 5 6 7 8 9 10 ... tail\r\n\r\n        uint256 cur;\r\n        uint256 transferAmount;\r\n        BetInfo memory b;\r\n        BlockStatus currentBlockStatus;\r\n        BettingResult currentBettingResult;\r\n\r\n        // head tail  loop\r\n        for (cur = _head; cur < _tail; cur++) {\r\n            b = _bets[cur];\r\n            currentBlockStatus = getBlockStatus(b.answerBlockNumber);\r\n            // checkable : block.number > AnswerBlockNumber && block.number < BLOCK_LIMIT + AnswerBlockNumber\r\n            if (currentBlockStatus == BlockStatus.Checkable) {\r\n                bytes32 answerBlockHash = getAnswerBlockHash(\r\n                    b.answerBlockNumber\r\n                );\r\n                currentBettingResult = isMatch(b.challenges, answerBlockHash);\r\n                // if win, bettor gets pot\r\n                if (currentBettingResult == BettingResult.win) {\r\n                    // transfer pot\r\n                    transferAmount = transferAfterPayingFee(\r\n                        b.bettor,\r\n                        _pot + BET_AMOUNT\r\n                    );\r\n                    // pot = 0\r\n                    _pot = 0;\r\n                    // emit WIN\r\n                    emit WIN(\r\n                        cur,\r\n                        b.bettor,\r\n                        transferAmount,\r\n                        b.challenges,\r\n                        answerBlockHash[0],\r\n                        b.answerBlockNumber\r\n                    );\r\n                }\r\n                // if fail, bettor's money gose pot\r\n                if (currentBettingResult == BettingResult.fail) {\r\n                    // pot = pot + BET_AMOUNT\r\n                    _pot += BET_AMOUNT;\r\n                    // emit FAIL\r\n                    emit FAIL(\r\n                        cur,\r\n                        b.bettor,\r\n                        0,\r\n                        b.challenges,\r\n                        answerBlockHash[0],\r\n                        b.answerBlockNumber\r\n                    );\r\n                }\r\n                // if draw, refund bettor's money\r\n                if (currentBettingResult == BettingResult.draw) {\r\n                    // transfer only BET_AMOUNT\r\n                    transferAmount = transferAfterPayingFee(\r\n                        b.bettor,\r\n                        BET_AMOUNT\r\n                    );\r\n                    // emit DRAW\r\n                    emit DRAW(\r\n                        cur,\r\n                        b.bettor,\r\n                        transferAmount,\r\n                        b.challenges,\r\n                        answerBlockHash[0],\r\n                        b.answerBlockNumber\r\n                    );\r\n                }\r\n            }\r\n\r\n            // Not Revealed : block.number <= AnswerBlockNumber\r\n            //      \r\n            if (currentBlockStatus == BlockStatus.NotRevealed) {\r\n                break;\r\n            }\r\n\r\n            // Block Limit Passed : block.number >= AnswerBlockNumber + BLOCK_LIMIT\r\n            //    \r\n            if (currentBlockStatus == BlockStatus.BlockLimitPassed) {\r\n                // refund\r\n                transferAmount = transferAfterPayingFee(b.bettor, BET_AMOUNT);\r\n                // emit refund\r\n                emit REFUND(\r\n                    cur,\r\n                    b.bettor,\r\n                    transferAmount,\r\n                    b.challenges,\r\n                    b.answerBlockNumber\r\n                );\r\n            }\r\n            popBet(cur);\r\n\r\n            // check the answer\r\n        }\r\n        // queue head   \r\n        _head = cur;\r\n    }\r\n\r\n    function transferAfterPayingFee(address payable addr, uint256 amount)\r\n        internal\r\n        returns (uint256)\r\n    {\r\n        // uint256 fee = amount / 100;\r\n        uint256 fee = 0;\r\n        uint256 amountWithoutFee = amount - fee;\r\n\r\n        // transfer to addr\r\n        addr.transfer(amountWithoutFee);\r\n        // transfer to owner\r\n        owner.transfer(fee);\r\n\r\n        // smart-contract Eth (?)  3 : call, send. trasnfer\r\n\r\n        return amountWithoutFee;\r\n    }\r\n\r\n    function setAnswerForTest(bytes32 answer) public returns (bool result) {\r\n        require(\r\n            msg.sender == owner,\r\n            \"Only owner can set the answer  for test mode\"\r\n        ); //  \r\n        answerForTest = answer;\r\n        return true;\r\n    }\r\n\r\n    function getAnswerBlockHash(uint256 answerBlockNumber)\r\n        internal\r\n        view\r\n        returns (bytes32 answer)\r\n    {\r\n        return mode ? blockhash(answerBlockNumber) : answerForTest;\r\n    }\r\n\r\n    /*\r\n     * @dev   \r\n     * @param challenges  \r\n     * @param answer \r\n     * @return \r\n     */\r\n    function isMatch(bytes1 challenges, bytes32 answer)\r\n        public\r\n        pure\r\n        returns (BettingResult)\r\n    {\r\n        // challenges 0xab\r\n        // answer 0xab....ff 32byte\r\n        //      \r\n\r\n        bytes1 c1 = challenges;\r\n        bytes1 c2 = challenges;\r\n\r\n        bytes1 a1 = answer[0];\r\n        bytes1 a2 = answer[0];\r\n\r\n        // Get first number\r\n        c1 = c1 >> 4; // 0xab -> 0x0a\r\n        c1 = c1 << 4; // 0xab -> 0xa0\r\n\r\n        a1 = a1 >> 4;\r\n        a1 = a1 << 4;\r\n\r\n        // Get Second number\r\n        c2 = c2 << 4; // 0xab -> 0xb0\r\n        c2 = c2 >> 4; // 0xab -> 0x0b\r\n\r\n        a2 = a2 << 4;\r\n        a2 = a2 >> 4;\r\n\r\n        if (a1 == c1 && a2 == c2) {\r\n            return BettingResult.win;\r\n        }\r\n        if (a1 == c1 || a2 == c2) {\r\n            return BettingResult.draw;\r\n        }\r\n        return BettingResult.fail;\r\n    }\r\n\r\n    function getBlockStatus(uint256 answerBlockNumber)\r\n        internal\r\n        view\r\n        returns (BlockStatus)\r\n    {\r\n        if (\r\n            block.number > answerBlockNumber &&\r\n            block.number < BLOCK_LIMIT + answerBlockNumber\r\n        ) {\r\n            return BlockStatus.Checkable;\r\n        }\r\n        if (block.number <= answerBlockNumber) {\r\n            return BlockStatus.NotRevealed;\r\n        }\r\n        if (block.number >= answerBlockNumber + BLOCK_LIMIT) {\r\n            return BlockStatus.BlockLimitPassed;\r\n        }\r\n        return BlockStatus.BlockLimitPassed;\r\n    }\r\n\r\n    function getBetInfo(uint256 index)\r\n        public\r\n        view\r\n        returns (\r\n            uint256 answerBlockNumber,\r\n            address bettor,\r\n            bytes1 challenges\r\n        )\r\n    {\r\n        BetInfo memory b = _bets[index];\r\n        answerBlockNumber = b.answerBlockNumber;\r\n        bettor = b.bettor;\r\n        challenges = b.challenges;\r\n    }\r\n\r\n    // queue -> push / pop\r\n\r\n    function pushBet(bytes1 challenges) internal returns (bool) {\r\n        BetInfo memory b;\r\n        b.bettor = payable(msg.sender); // 20byte\r\n        b.answerBlockNumber = block.number + BET_BLOCK_INTERVAL; // 32byte -> 20000gas\r\n        b.challenges = challenges; // byte ->  20byte   20000gas\r\n\r\n        _bets[_tail] = b;\r\n        _tail++; // 32byte -> 20000gas -> 5000gas\r\n\r\n        // 60000gas\r\n\r\n        return true;\r\n    }\r\n\r\n    // pop  \r\n    function popBet(uint256 index) internal returns (bool) {\r\n        delete _bets[index];\r\n        return true;\r\n    }\r\n}\r\n",
  "sourcePath": "C:\\Users\\82104\\OneDrive\\ \\project\\Lottery-smart-contract\\contracts\\Lottery.sol",
  "compiler": {
    "name": "solc",
    "version": "0.8.11+commit.d7f03943.Emscripten.clang"
  },
  "schemaVersion": "3.4.5",
  "updatedAt": "2022-02-26T12:16:33.700Z",
  "networkType": "ethereum",
  "devdoc": {
    "kind": "dev",
    "methods": {},
    "version": 1
  },
  "userdoc": {
    "kind": "user",
    "methods": {},
    "version": 1
  }
}